:020000040000fa
:080000000002040000000000f2
:020000040000fa
:040008008c03000065
:020000040000fa
:04000c008c03000061
:020000040000fa
:040010008c0300005d
:020000040000fa
:040014008c03000059
:020000040000fa
:040018008c03000055
:020000040000fa
:04001c008c03000051
:020000040000fa
:040020008c0300004d
:020000040000fa
:040024008c03000049
:020000040000fa
:040028008c03000045
:020000040000fa
:04002c008c03000041
:020000040000fa
:040030008c0300003d
:020000040000fa
:0400340012030000b3
:020000040000fa
:040038006c03000055
:020000040000fa
:04003c008c03000031
:020000040000fa
:040040008c0300002d
:020000040000fa
:040044008c03000029
:020000040000fa
:040048008c03000025
:020000040000fa
:04004c008c03000021
:020000040000fa
:040050008c0300001d
:020000040000fa
:040054008c03000019
:020000040000fa
:04005800fa020000a8
:020000040000fa
:04005c008c03000011
:020000040000fa
:040060007403000025
:020000040000fa
:040064008c03000009
:020000040000fa
:040068008c03000005
:020000040000fa
:04006c008c03000001
:020000040000fa
:040070008c030000fd
:020000040000fa
:040074008c030000f9
:020000040000fa
:040078008c030000f5
:020000040000fa
:04007c008c030000f1
:020000040000fa
:040080008c030000ed
:020000040000fa
:040084008c030000e9
:020000040000fa
:040088007c030000f5
:020000040000fa
:04008c008c030000e1
:020000040000fa
:040090008c030000dd
:020000040000fa
:040094008c030000d9
:020000040000fa
:040098008c030000d5
:020000040000fa
:04009c008c030000d1
:020000040000fa
:0400a0008c030000cd
:020000040000fa
:0400a4008c030000c9
:020000040000fa
:0400a8008c030000c5
:020000040000fa
:0400ac008c030000c1
:020000040000fa
:0400b0008c030000bd
:020000040000fa
:0400b4002403000021
:020000040000fa
:0400b80084030000bd
:020000040000fa
:0400bc008c030000b1
:020000040000fa
:0400c0008c030000ad
:020000040000fa
:0400c4008c030000a9
:020000040000fa
:0400c8008c030000a5
:020000040000fa
:0400cc008c030000a1
:020000040000fa
:0400d0008c0300009d
:020000040000fa
:0400d4008c03000099
:020000040000fa
:0400d8008c03000095
:020000040000fa
:0400dc008c03000091
:020000040000fa
:0400e0008c0300008d
:020000040000fa
:0400e4008c03000089
:020000040000fa
:0400e8008c03000085
:020000040000fa
:0400ec008c03000081
:020000040000fa
:0400f0008c0300007d
:020000040000fa
:0400f4008c03000079
:020000040000fa
:0400f8008c03000075
:020000040000fa
:0400fc008c03000071
:020000040000fa
:040100008c0300006c
:020000040000fa
:040104008c03000068
:020000040000fa
:040108008c03000064
:020000040000fa
:04010c008c03000060
:020000040000fa
:040110008c0300005c
:020000040000fa
:040114008c03000058
:020000040000fa
:040118008c03000054
:020000040000fa
:04011c008c03000050
:020000040000fa
:040120008c0300004c
:020000040000fa
:040124008c03000048
:020000040000fa
:040128008c03000044
:020000040000fa
:04012c008c03000040
:020000040000fa
:040130008c0300003c
:020000040000fa
:040134008c03000038
:020000040000fa
:040138008c03000034
:020000040000fa
:04013c008c03000030
:020000040000fa
:040140008c0300002c
:020000040000fa
:040144008c03000028
:020000040000fa
:040148008c03000024
:020000040000fa
:04014c008c03000020
:020000040000fa
:040150008c0300001c
:020000040000fa
:040154008c03000018
:020000040000fa
:040158008c03000014
:020000040000fa
:04015c008c03000010
:020000040000fa
:040160008c0300000c
:020000040000fa
:040164008c03000008
:020000040000fa
:040168008c03000004
:020000040000fa
:04016c008c03000000
:020000040000fa
:040170008c030000fc
:020000040000fa
:040174008c030000f8
:020000040000fa
:040178008c030000f4
:020000040000fa
:04017c008c030000f0
:020000040000fa
:040180008c030000ec
:020000040000fa
:040184008c030000e8
:020000040000fa
:040188008c030000e4
:020000040000fa
:04018c008c030000e0
:020000040000fa
:040190008c030000dc
:020000040000fa
:040194008c030000d8
:020000040000fa
:040198008c030000d4
:020000040000fa
:04019c008c030000d0
:020000040000fa
:0401a0008c030000cc
:020000040000fa
:0401a4008c030000c8
:020000040000fa
:0401a8008c030000c4
:020000040000fa
:0401ac008c030000c0
:020000040000fa
:0401b0008c030000bc
:020000040000fa
:0401b4008c030000b8
:020000040000fa
:0401b8008c030000b4
:020000040000fa
:0401bc008c030000b0
:020000040000fa
:0401c0008c030000ac
:020000040000fa
:0401c4008c030000a8
:020000040000fa
:0401c8008c030000a4
:020000040000fa
:0401cc008c030000a0
:020000040000fa
:0401d0008c0300009c
:020000040000fa
:0401d4008c03000098
:020000040000fa
:0401d8008c03000094
:020000040000fa
:0401dc008c03000090
:020000040000fa
:0401e0008c0300008c
:020000040000fa
:0401e4008c03000088
:020000040000fa
:0401e8008c03000084
:020000040000fa
:0401ec008c03000080
:020000040000fa
:0401f0008c0300007c
:020000040000fa
:0401f4008c03000078
:020000040000fa
:0401f8008c03000074
:020000040000fa
:0401fc008c03000070
:020000040000fa
:040200008c0300006b
:020000040000fa
:040204008c03000067
:020000040000fa
:040208008c03000063
:020000040000fa
:04020c008c0300005f
:020000040000fa
:040210008c0300005b
:020000040000fa
:040214008c03000057
:020000040000fa
:040218008c03000053
:020000040000fa
:04021c008c0300004f
:020000040000fa
:040220008c0300004b
:020000040000fa
:040224008c03000047
:020000040000fa
:040228008c03000043
:020000040000fa
:04022c008c0300003f
:020000040000fa
:040230008c0300003b
:020000040000fa
:040234008c03000037
:020000040000fa
:040238008c03000033
:020000040000fa
:04023c008c0300002f
:020000040000fa
:040240008c0300002b
:020000040000fa
:040244008c03000027
:020000040000fa
:040248008c03000023
:020000040000fa
:04024c008c0300001f
:020000040000fa
:040250008c0300001b
:020000040000fa
:040254008c03000017
:020000040000fa
:040258008c03000013
:020000040000fa
:04025c008c0300000f
:020000040000fa
:040260008c0300000b
:020000040000fa
:040264008c03000007
:020000040000fa
:040268008c03000003
:020000040000fa
:04026c008c030000ff
:020000040000fa
:040270008c030000fb
:020000040000fa
:040274008c030000f7
:020000040000fa
:040278008c030000f3
:020000040000fa
:04027c008c030000ef
:020000040000fa
:040280008c030000eb
:020000040000fa
:040284008c030000e7
:020000040000fa
:040288008c030000e3
:020000040000fa
:04028c008c030000df
:020000040000fa
:040290008c030000db
:020000040000fa
:040294008c030000d7
:020000040000fa
:040298008c030000d3
:020000040000fa
:04029c008c030000cf
:020000040000fa
:0402a0008c030000cb
:020000040000fa
:0402a4008c030000c7
:020000040000fa
:0402a8008c030000c3
:020000040000fa
:0402ac008c030000bf
:020000040000fa
:0402b0008c030000bb
:020000040000fa
:0402b4008c030000b7
:020000040000fa
:0402b8008c030000b3
:020000040000fa
:0402bc008c030000af
:020000040000fa
:0402c0008c030000ab
:020000040000fa
:0402c4008c030000a7
:020000040000fa
:0402c8008c030000a3
:020000040000fa
:0402cc008c0300009f
:020000040000fa
:0402d0008c0300009b
:020000040000fa
:0402d4008c03000097
:020000040000fa
:0402d8008c03000093
:020000040000fa
:0402dc008c0300008f
:020000040000fa
:0402e0008c0300008b
:020000040000fa
:0402e4008c03000087
:020000040000fa
:0402e8008c03000083
:020000040000fa
:0402ec008c0300007f
:020000040000fa
:0402f0008c0300007b
:020000040000fa
:0402f4008c03000077
:020000040000fa
:0402f8008c03000073
:020000040000fa
:0402fc008c0300006f
:020000040000fa
:040300008c0300006a
:020000040000fa
:040304008c03000066
:020000040000fa
:040308008c03000062
:020000040000fa
:04030c008c0300005e
:020000040000fa
:040310008c0300005a
:020000040000fa
:100400000f6021000eff24000e0188000000000094
:10041000000020000000e000020032000001200087
:100420002002880014000700bd0007000000e00063
:1004300003003a00c0b42000010020000200370091
:100440000000200001002000810f70000100320038
:100450000f000700000020000000e0000200320052
:100460000000020000000000d207020000000000af
:100470000040da000000fe00200020000000e00044
:1004800002003200100020009001880000000600e9
:10049000a1028800800478000000eb001f003700f4
:1004a000e284440054a0b4009905ba00e2844400f8
:1004b00054a0b4009906ba00e284440054a0b400e9
:1004c0000006eb00476fde00fd07b200ae018800ba
:1004d000636ce10003003a000ad801000000eb0061
:1004e0000e003700606ce10008003a00004deb00a0
:1004f0000a05e800020039003420ec000af0a000f0
:100500008b05e900f9ff3e00040037006168e10057
:10051000010032000086eb000b00070019c7ba008b
:100520000e04e0001905ba0003003a000a00e000da
:10053000dbff3a0000000600fe07b200ae028800b2
:100540008a047800f5ff37000cd0a300e20f4d00bd
:100550001c003b0089027800354dba000a05e8000e
:10056000020039003420ec000af0a0008b05e900fd
:100570000f003200254dba000a05e80002003900dc
:100580003420ec000af0a0008b05e90008003200de
:100590000c00e0000600320015cdba000a05e800a4
:1005a000020039003420ec000af0a0008b05e900bd
:1005b0008984e80054a0b4000b00e000e2ff3a0098
:1005c000000006009902ba00055d78008b05e9007d
:1005d000f7ff3200c82ade00055d78008b05e900d0
:1005e000f3ff32000c00e000f1ff320019ddba0029
:1005f000eeff3700809fbe000000fa000000000000
:100600001111800000102000008060000000e00058
:10061000fbff32000188a9000080fa004f00be00f5
:1006200000400600801f78000000fa002080800053
:100630000000e800208088000068a9000080fa001f
:100640004f00780000400600809fbe000000fa00c6
:100650000468a90050208000610060000000e000f4
:10066000010032000a04a9005020800062006000ee
:100670000000e000150032000021800062006000f0
:100680000000e000060032000001210041c0b3007c
:10069000014878003001210011c0b3000148780002
:1006a00000218000640060000000e00006003200cd
:1006b000a002210041c0b30001487800d00221000f
:1006c00021c0b300014878000a24a9000080fa0084
:1006d0004f00be00004006000000fa000088a9009c
:1006e0000080fa00004006000000fa0001c8a900de
:1006f0000080fa00004006000000fa000308a9008c
:100700000080fa00004006000000fa000488a900fa
:100710000080fa00004006000040da000000fe0001
:0407200000000500d0
:020000040000fa
:100724000000fa00792ea9007d2ea900642ea900ec
:10073400640ea80000062000a0368800e000200017
:100744001034880001208000f08f2f0000806000aa
:1007540000a0a0000020880000000000012080000c
:10076400000e20008080600000082000808f500070
:10077400faff3a000004a900100720008020880036
:100784002029200090208800f0012c0030208800cf
:1007940001cba90001aba80001588000f0fc2f0098
:1007a400008060000050a0000058880001588000bc
:1007b400c0ff2f0000806000005888006004200003
:1007c40010588800700020007058880020442000d1
:1007d4006058880000402100205888000040210013
:1007e4003058880030e4a800802180003000b30035
:1007f4008021880001eba800000220000059880035
:10080400004420006059880070002000705988005e
:10081400200220001059880000402100205988003f
:10082400004021003059880021eba80031208000cd
:10083400f0ff210000806000302088000004a80040
:10084400c1208000c0ff2f0000806000c02088000d
:1008540000fc2f008021880000462200002288002e
:10086400802180000030a0008021880000228000c8
:100874000030a100002288000121800000ff2f0029
:10088400008060000000a000002188001404a8007b
:10089400c120800030ff2f00008060000020a000f5
:1008a400c020880000fe2f00a02188000032200014
:1008b40020228800a02180000030a000a021880010
:1008c400202280000030a100202288000121800025
:1008d400f0f02f00008060000050a000002188008c
:1008e4001424a8000004a90031e4a90032e4a900fa
:1008f4002a24ef00502180004021880040218000fc
:10090400102188001021800000218800012080002f
:10091400f08f2f000080600000208800000000009d
:1009240001208000000e2000008060000000e00034
:10093400fbff3a000c24a8002468a8000080fa00f9
:10094400000006000a00fa00881f7800e80047004b
:10095400800878008000eb000e80e8000108780031
:100964000000eb00000f78006000b800640347004b
:10097400008bbe0068004700100078006300400050
:10098400104078000080fb00c400dd00004021001e
:100994000080400010007800e10060000e80e80054
:1009a400010878000e80e800100078000000e000e4
:1009b40021003a00680047001000780063004000fe
:1009c400104078000080fb00c400dd0000402100de
:1009d4000080400090007800c0ff2100008060008b
:1009e4004200de008000eb0068014700120178003d
:1009f400640141000089be006800470010007800cf
:100a040031c0b3000080e800014878006800470066
:100a14001000780063004000104078000080fb0064
:100a2400c400dd0000402100008040001000780078
:100a3400620f6000770037006800470010007800fc
:100a440063004000104078000080fb00c400dd001b
:100a54000040210000804000100078006103b800cd
:100a6400c0ff21000100200006047800070378007d
:100a7400800378008100780007006400810063002f
:100a840081027800000278000400be00640247007e
:100a9400008abe00640047009000900010007800b7
:100aa400c000dd0000002000680247001402780046
:100ab40064024200008abe0068004700100078000b
:100ac40063004000104078000080fb004400dd001b
:100ad4008080e80000402100008040001000780081
:100ae4006102b800f0ff2000010020000403780038
:100af4000502780080027800810078000500630018
:100b04008100620081017800000178000200be00cb
:100b1400640147000089be006800470010007800a7
:100b240064004000100178009001900064004700c8
:100b340010027800900290004628dd00ca20de00f2
:100b4400810070004620dd000200400083804800e0
:100b54006801470012017800640141000089be0069
:100b640068004700100078006300400010407800df
:100b74000080fb004400dd00e40040000040210050
:100b840000804000100078004a00de008000eb0086
:100b9400640147000089be00680047001000780027
:100ba4006400400010017800900190006400470048
:100bb40090009000100078000200400083804800fc
:100bc4006801470012017800640141000089be00f9
:100bd400680047001000780021c0b3000080e800de
:100be4000148780068004700100078006300400066
:100bf400104078000080fb004400dd00e400400069
:100c04000040210000804000900078000020200077
:100c1400008f60001e007800e10f500006003a00cb
:100c2400680047001000780011c0b3000000e8001d
:100c340001487800990037006800470010007800e8
:100c44008040eb000000e80001487800680047009d
:100c54001000780063004000104078000080fb0022
:100c64004400dd00e6004000004021000080400018
:100c740010007800004078008080fb006800470086
:100c84001000780068004000010878006800470000
:100c94001000780063004000104078000080fb00e2
:100ca4004400dd00e60040000040210000804000d8
:100cb400100078004800de00004078008080fb00cf
:100cc40068004700100078006a00400001087800be
:100cd400680047001000780063004000104078006e
:100ce4000080fb004400dd00e800400000402100db
:100cf4000080400010007800004078008080fb00f5
:100d040068004700100078006c004000010878007b
:100d1400680047001000780063004000104078002d
:100d24000080fb004400dd00e8004000004021009a
:100d340000804000100078004800de000040780089
:100d44008080fb0068004700100078006e004000bf
:100d54000108780068004700100078006300400034
:100d6400104078000080fb004400dd00ea004000f1
:100d7400004021000080400010007800004078000e
:100d84008080fb006800470010007800700040007d
:100d940001087800680047001000780063004000f4
:100da400104078000080fb004400dd00ea004000b1
:100db4000040210000804000100078004800de0060
:100dc400004078008080fb00680047001000780035
:100dd40072004000010878006800470010007800a5
:100de40063004000104078000080fb004400dd00f8
:100df400ec0040000040210000804000100078001a
:100e0400004078008080fb006800470010007800f4
:100e14007400400001087800680047001000780062
:100e240063004000104078000080fb004400dd00b7
:100e3400ec004000004021000080400010007800d9
:100e44004800de00004078008080fb006800470016
:100e54001000780076004000010878006800470020
:100e64001000780063004000104078000080fb0010
:100e74004400dd00e4004000004021000080400008
:100e84001000780000407800ef40600068004700e0
:100e9400100078007800400001487800680047009e
:100ea4001000780063004000104078000300070041
:100eb4004f0478000080fa00000006000200fa00e7
:100ec400004f780000218000620060000000e00014
:100ed400050032001e407800e14f500002003a0045
:100ee4002024a90011003700002180006400600064
:100ef4000000e000050032001e407800e24f500080
:100f040002003a002044a9000800370000218000b4
:100f1400680060000000e000040032001e40780019
:100f2400e34f500001003a002064a9000080fa0059
:100f3400000006000000fa008008200000a08800dd
:100f44000000eb0010a088006000200020a08800b2
:100f54006087290030a088002043250040a0880035
:100f6400e00f210050a088000000000000000000f5
:100f7400000000003064a800000000000000000031
:100f84000000000000000000802180006800600074
:100f94000000e000fcff3a000080fa0000000600b8
:100fa4000200fa0076000700a10007008200070093
:100fb400dbfd0700260107004b010700200020008d
:100fc400809a880001003700000000000000eb0058
:100fd400000f7800600037001e007800fa00b900a6
:100fe400800078000001210000804000104078005b
:100ff400e44f500057003a001e007800fa00b90090
:101004008000780000012100008040004dfe0700b0
:101014001e007800fa00b900800078000001210069
:101024000080400051c0b300014878001e007800e1
:10103400fa00b900e40040000001210000804000f3
:10104400100178009001900030122000010020006f
:10105400800f5100818f59003e003a001e00780035
:10106400fa00b900e80040000001210000804000bf
:1010740010007800f20f50000c003a0060718000fc
:101084004400de00614060000004a2006140600092
:101094000080fb00610060004400dd00617180009d
:1010a4000140a10001007000607188001e007800fa
:1010b400fa00b900e800400000012100008040006f
:1010c4009000780040032000808f50000c003a000c
:1010d400607180004500de00614060000004a200f1
:1010e400614060000080fb00610060004500dd009d
:1010f400617180000150a1000100700060718800de
:101104001e007800fa00b900e80040000001210048
:10111400008040009000780060052000808f50001f
:101124000c003a00607180004600de0061406000ff
:101134000004a200614060000080fb0061006000c8
:101144004600dd00617180000160a10001007000b3
:10115400607188001e0fe8001e007800e10f500047
:101164009dff340001082000a0e220006300070076
:101174000000e00094ff32006eff070093ff370089
:101184000000fa00213a8000f0f32f000080600094
:10119400203a8800213a800000fe2f000080600081
:1011a400203a880060022000303a880040a7a90055
:1011b4000080fa00000006000000fa00b17180000f
:1011c400f0c32f0000806000b071880005e1a80022
:1011d4000421a90004c1a900210880000003200003
:1011e4000100700020088800608929001008880028
:1011f40001428000f0ff280080806000000023008e
:1012040001007000004288000068a9002068a8005e
:10121400288ea90028aea90028cea9002c8ea900ea
:101224002caea9002ccea9000080fa000000060014
:101234000000fa000028ef000228ef000428ef0065
:101244000628ef000828ef0001438000f0f82f0083
:1012540080806000000620000100700000438800c8
:1012640021428000f0ff28000080600000e0a00020
:10127400204288000080fa00000006000400fa0002
:101284008e80e800800878000000eb00000f7800f2
:101294000300370027000900000000001e0fe800cb
:1012a4000e80e800100078009e007800808f5000c7
:1012b400f8ff35000080fa00000006000200fa0082
:1012c400000f7800108080001e004000108088000d
:1012d40011808000f00f2000808f50000500340042
:1012e40011808000f00f2000008060000000e80002
:1012f400108088000080fa00000006000400fa0054
:10130400000f78000e80e800010878000e80e800e5
:10131400900078001e007800380007000000e0000c
:1013240007003a000ed0bf000004e00004003a00b9
:10133400208080003080880010c0b3000ef0b70019
:101344002180800030808000808f500011003400a4
:101354000ed0bf00e14f50000e003a002180800003
:101364003080800000805000e10f500020003400e5
:101374000e80e800900078001e0078001f0007002f
:101384000000e00019003a000e70ef001000200089
:10139400180037002180800030808000808f50004a
:1013a40013003d000ed0bf00e14f500010003a0082
:1013b400208080008000ea0030808000008050009f
:1013c400e10f50000a0036000e80e800900078001b
:1013d4001e007800090007000000e00004003a0045
:1013e4000e70ef0010002000020037000000000023
:1013f4000000eb000080fa00000006000600fa007e
:101404000e81e800000978006400470001087800b4
:101414000e80e80010007800900078006400470017
:1014240010007800008060000000e00003003a0033
:101434000000eb00000f78000200370010002000cd
:10144400000f78001e0078000080fa0000000600fb
:101454000000fa00148ea900146ea80091338000d5
:1014640000fc2f00008060003000b300903388003f
:1014740030c2b300c6e6b7003002a9008111800073
:1014840090ff2f00008060008011880030a2a90026
:101494003062a90000042000c011880033a2a80013
:1014a40033e2a90023e8a90031e2a8003342a800ee
:1014b4000080fa00000006000200fa00004f7800e5
:1014c40000000000911180000010200000806000e6
:1014d4000000e000fbff32001e00fb00a0118800aa
:1014e4000080fa00000006000000fa000eeea900d9
:1014f400010ea90000eea900050ea80004eea80044
:1015040001348000f00f2c00008060000080a000f7
:10151400003488003ccea9008004200020368800d6
:101524003d0ea8002002a9000111800090ff2f00a9
:10153400008060000011880020a2a9002062a90098
:10154400702020004011880023a2a80023e2a900f3
:101554002188a80021e2a8000080fa00000006000b
:101564000000fa00000000001111800000102000ab
:10157400008060000000e000fbff3200000000007b
:101584001111800000802000008060000000e00055
:10159400fbff3a002342a8002362a8002422ef00a4
:1015a40000000000500520000080880000808000ba
:1015b400201188000000000011118000001020009c
:1015c400008060000000e000fbff320020342000b7
:1015d4002aff07003002200020118800300220007a
:1015e400108088000000000011118000001020000d
:1015f400008060000000e000fbff32002034200087
:101604001eff070020012000008088000080800069
:10161400201188000080800028ff070000000000df
:101624001111800000102000008060000000e00024
:10163400fbff32002034200010ff0700400320008d
:1016440000808800008080002011880000808000d5
:101654001aff070000000000111180000010200094
:10166400008060000000e000fbff32002034200016
:1016740002ff0700108080000080ea0080007800ec
:10168400f00f200000806000201188000080fa0024
:04169400000006004c
:020000040000fa
:1016980008100000040000008200000040420f0013
:1016a800000000000c100000040000008000000092
:1016b800101000004003000080000000001000002f
:1016c8000800000080000000001400000002000074
:1016d800800000005013000002000000820000009b
:0816e8000100000000000000f9
:020000040000fa
:020000040005f5
:04573000fbff00007b
:020000040000fa
:020000040005f5
:04573800bdff0000b1
:020000040000fa
:020000040005f5
:045740009fff0000c7
:020000040000fa
:020000040005f5
:04574800feff000060
:020000040000fa
:020000040005f5
:04575000feff000058
:020000040000fa
:020000040005f5
:04577800feff000030
:00000001FF
